:1000000002EF00F020ECFEF053ECFEF0E7ECFDF028
:10001000000E236E246E116E126E0B0E126ED3EC58
:10002000FFF0040E116EBCECFFF017EF00F0040EB1
:10003000126ED3ECFFF0F2ECFDF0DBECFEF021EF02
:1000400000F0F2ECFDF0FBECFDF0006E2663F7EC47
:10005000FEF021EF00F01200FF0E45EC00F0FF0E65
:1000600045EC00F0FF0E45EC00F0FF0E45EC00F013
:10007000FF0E45EC00F0FF0E45EC00F0FF0E45ECE6
:1000800000F0FF0E45EC00F01200156E640E4CEC13
:1000900000F0152EFBD71200136E133A0F0E131437
:1000A000146EF00E131656EC00F01200000E13063C
:1000B000145AFDE212000252116E27ECFEF00352B8
:1000C000126E32ECFEF0050E186F67EF00F00300C1
:0C00D0001807000E186367EF00F0120024
:020000040001F9
:10FBCE0092680F0125680001010EC26E300EC16EE3
:10FBDE00F60EC06E1200C282C2B2FED71200C45020
:10FBEE00246EC350236E1200000E256E266EC45076
:10FBFE00246207ECFEF0010E256215ECFEF01200F9
:10FC0E00C45024601200246EC350236E010E266E63
:10FC1E00256E1200246EC350236E1200C3500000D6
:10FC2E00000023601CECFEF01200236E010E266F06
:10FC3E0012007F9C7F8E000E966E000E956E120047
:10FC4E00FF0E846E11503DECFEF0000E846E130E0E
:10FC5E003DECFEF01200FF0E836E12503DECFEF0F6
:10FC6E00000E836E130E3DECFEF012001B6E190E8D
:10FC7E0044ECFEF01B2EFBD71200196E193A0F0E34
:10FC8E0019141A6EF00E19164EECFEF01200000E3C
:10FC9E0019061A5AFDE212008A6AC00E936E280ED9
:10FCAE00C5ECFEF0300E94ECFEF00A0ECCECFEF03D
:10FCBE00280E94ECFEF00A0ECCECFEF0280E94EC1E
:10FCCE00FEF00A0ECCECFEF00F0E94ECFEF00A0ED7
:10FCDE00CCECFEF0010E94ECFEF0020EC5ECFEF044
:10FCEE00060E94ECFEF00A0ECCECFEF01200276E1F
:10FCFE00273883ECFEF027500F0B216E0A0E216081
:10FD0E00070F260F2124A2ECFEF01200226EDE5009
:10FD1E00A2ECFEF0222EFBD71200216E21380F0B23
:10FD2E008A6E8A98B3ECFEF021500F0B8A6E8A9879
:10FD3E00B3ECFEF01200216E21380F0B8A6E8A880A
:10FD4E00B3ECFEF021500F0B8A6E8A88B3ECFEF0F6
:10FD5E000A0ECCECFEF012000000000000000000C5
:10FD6E0000000000000000008A8A00000000000071
:10FD7E0000000000000000008A9A1200206EFA0EA9
:10FD8E00CCECFEF0202EFBD712001E6E1E3A0F0E8C
:10FD9E001E141F6EF00E1E16D6ECFEF01200000E94
:10FDAE001E061F5AFDE21200000E026E036E066E54
:10FDBE00076EF2ECFDF0FBECFDF0B2ECFFF0060E80
:10FDCE00126ED3ECFFF0F2ECFDF0FBECFDF0B2ECBA
:10FDDE00FFF00DECFFF004ECFFF0F7ECFEF012007C
:10FDEE0062ECFFF068ECFFF040ECFFF051ECFFF03E
:10FDFE002CECFFF004ECFFF012000250116EBCEC84
:10FE0E00FFF00350126ED3ECFFF01200050E016EE0
:10FE1E0011EFFFF0010721ECFFF0BCECFFF0F2EC6C
:10FE2E00FDF0FBECFDF0B2ECFFF0000E016211EF05
:10FE3E00FFF01200040E006E25EFFFF00006112AEF
:10FE4E00000E006225EFFFF01200000E0662120097
:10FE5E00000E07621200020E1127122790ECFFF01F
:10FE6E00020E115F6EECFFF0020E115F90ECFFF0D0
:10FE7E001200010E06621200020E1127125F6EECC6
:10FE8E00FFF0020E115E90ECFFF0180E116E6EEC8C
:10FE9E00FFF01200010E07621200020E1127125F10
:10FEAE006EECFFF0020E115E90ECFFF0180E116E6C
:10FEBE006EECFFF01200040E02621200010E066ECE
:10FECE0012001A0E02621200010E076E1200BCEC36
:10FEDE00FFF0D3ECFFF0E7ECFDF0F2ECFDF0FBEC05
:10FEEE00FDF0B2ECFFF0020E056E7EEFFFF0020E9B
:10FEFE001227D3ECFFF0E7ECFDF0F2ECFDF0FBEC9B
:10FF0E00FDF0B2ECFFF00506000E05627EEFFFF08D
:10FF1E001200BCECFFF0D3ECFFF0E7ECFDF0F2ECDE
:10FF2E00FDF0FBECFDF0B2ECFFF0020E056EA0EF63
:10FF3E00FFF0020E125FD3ECFFF0E7ECFDF0F2ECF7
:10FF4E00FDF0FBECFDF0B2ECFFF00506000E0562D5
:10FF5E00A0EFFFF01200000E2662B7ECFFF01200C9
:10FF6E001150026E1250036E1200FF0E0E6FC0EF94
:10FF7E00FFF027ECFEF00F07000E0F63C0EFFFF04F
:10FF8E00FF0E0F6FCBEFFFF027ECFEF00F07000E0A
:10FF9E000F63CBEFFFF01200FF0E0E6FD7EFFFF0E7
:10FFAE0032ECFEF00E07000E0E63D7EFFFF0FF0EE1
:10FFBE000E6FE2EFFFF032ECFEF00E07000E0E6356
:10FFCE00E2EFFFF012000B6E640EF1ECFFF00B2E61
:10FFDE00FBD71200096E093A0F0E09140A6EF00EC5
:10FFEE000916FBECFFF01200000E09060A5AFDE29C
:02FFFE001200EF
:020000040030CA
:0700000015137F00B98B917D
:06000800FFC0FFE0FF4015
:00000001FF
