:1000000002EF00F0AFECFDF05AECFEF07CECFDF0FE
:10001000000E2B6E2C6E196E1A6E0FEF00F087EC2F
:10002000FDF0E9ECFEF015EF00F0BAECFEF0E2ECCA
:10003000FDF00D5085ECFEF029EC00F087ECFDF0B2
:100040008BECFDF0006E2E630DECFFF015EF00F071
:100050001200050E206F2DEF00F003002007000EA8
:0800600020632DEF00F01200F7
:020000040001F9
:10FAF80092680F0125680001010EC26E300EC16EBA
:10FB0800F60EC06E1200C282C2B2FED71200000EFC
:10FB18002D6E2E6EC4502C6297ECFDF0010E2D62F6
:10FB2800A1ECFDF01200C4502C6012002C6EC350E2
:10FB38002B6E010E2E6E2D6E1200C4502C62120018
:10FB4800C350000000002B60ABECFDF012002B6EE0
:10FB5800010E2E6F12007F9C7F8E000E966E000E97
:10FB6800956E1200FF0E846E1950CCECFDF0000E5D
:10FB7800846E130ECCECFDF01200FF0E836E1A504B
:10FB8800CCECFDF0000E836E130ECCECFDF01200F1
:10FB9800236E190ED3ECFDF0232EFBD71200216E35
:10FBA800213A0F0E2114226EF00E2116DDECFDF025
:10FBB8001200000E2106225AFDE21200000E0D6FFF
:10FBC800420E046E000E066E2CC007F02BC005F026
:10FBD80026ECFEF00350086F0150056E0050076FC9
:10FBE8000250076E096E0A0E046E000E066E43EC94
:10FBF800FEF00350086F0150056E0050076F025069
:10FC08000A6E076F0A0E046E000E066E43ECFEF0D5
:10FC18000350086E0150056E0050076E02500B6EBF
:10FC2800076E0A0E046E000E066E43ECFEF00250DC
:10FC38000C6E0C500D270B500D270A500D2709503C
:10FC48000D27120004510503F4CF00F0F3CF01F0A3
:10FC580006510703F4CF03F0F3CF02F00451070372
:10FC6800F3500027F4500223E86A032306510503E2
:10FC7800F3500027F4500223E86A032312000451CA
:10FC88000503F4CF00F0F3CF01F007510403F3505C
:10FC98000027F4500223E86A032308510403F350B1
:10FCA8000027F4500223E86A032312008A6AC00E70
:10FCB800936E280ED3ECFEF0300E9BECFEF00A0E8D
:10FCC800DAECFEF0280E9BECFEF00A0EDAECFEF001
:10FCD800280E9BECFEF00A0EDAECFEF00F0E9BEC01
:10FCE800FEF00A0EDAECFEF0010E9BECFEF0020EBE
:10FCF800D3ECFEF0060E9BECFEF00A0EDAECFEF0FA
:10FD080012002F6E2F388AECFEF02F500F0B296E41
:10FD18000A0E2960070F260F2924A9ECFEF012000D
:10FD28002A6EDE50A9ECFEF02A2EFBD71200296EAF
:10FD380029380F0B8A6E8A98C1ECFEF029500F0BF8
:10FD48008A6E8A98C1ECFEF01200296E29380F0BD2
:10FD58008A6E8A88C1ECFEF029500F0B8A6E8A8859
:10FD6800C1ECFEF00A0EDAECFEF01200010E9BEC7C
:10FD7800FEF0020ED3ECFEF01200000000000000BE
:10FD8800000000000000000000008A8A0000000057
:10FD9800000000000000000000008A9A1200286E8F
:10FDA800FA0EDAECFEF0282EFBD71200266E263A61
:10FDB8000F0E2614276EF00E2616E4ECFEF0120045
:10FDC800000E2606275AFDE21200000E106E116E74
:10FDD800126E136E0B0E1A6EE9ECFFF0040E196E1C
:10FDE800D2ECFFF087ECFDF08BECFDF0C8ECFFF0F7
:10FDF800060E1A6EE9ECFFF087ECFDF08BECFDF0D7
:10FE0800C8ECFFF023ECFFF01AECFFF00DECFFF06C
:10FE1800120078ECFFF07EECFFF056ECFFF067EC98
:10FE2800FFF042ECFFF01AECFFF012001050196ED0
:10FE3800D2ECFFF011501A6EE9ECFFF01200050E3B
:10FE48000F6E27EFFFF00F0737ECFFF0D2ECFFF053
:10FE580087ECFDF08BECFDF0C8ECFFF0000E0F62B4
:10FE680027EFFFF01200040E0E6E3BEFFFF00E06B8
:10FE7800192A000E0E623BEFFFF01200000E12620C
:10FE88001200000E13621200020E19271A27A6ECA0
:10FE9800FFF0020E195F84ECFFF0020E195FA6EC6A
:10FEA800FFF01200010E12621200020E19271A5FEB
:10FEB80084ECFFF0020E195EA6ECFFF0180E196E26
:10FEC80084ECFFF01200010E13621200020E1927D3
:10FED8001A5F84ECFFF0020E195EA6ECFFF0180E14
:10FEE800196E84ECFFF01200040E10621200010E6D
:10FEF800126E12001A0E10621200010E136E12001A
:10FF0800D2ECFFF0E9ECFFF07CECFDF087ECFDF0C3
:10FF18008BECFDF0C8ECFFF0020E176E94EFFFF0CB
:10FF2800020E1A27E9ECFFF07CECFDF087ECFDF0FF
:10FF38008BECFDF0C8ECFFF01706000E176294EF8B
:10FF4800FFF01200D2ECFFF0E9ECFFF07CECFDF0E2
:10FF580087ECFDF08BECFDF0C8ECFFF0020E176E9D
:10FF6800B6EFFFF0020E1A5FE9ECFFF07CECFDF053
:10FF780087ECFDF08BECFDF0C8ECFFF01706000EE7
:10FF88001762B6EFFFF01200000E2E62CDECFFF004
:10FF980012001950106E1A50116E1200FF0E146FD5
:10FFA800D6EFFFF0B6ECFDF01407000E1463D6EFA1
:10FFB800FFF0FF0E146FE1EFFFF0B6ECFDF0140751
:10FFC800000E1463E1EFFFF01200FF0E156F3BEF18
:10FFD800FFF0C1ECFDF01507000E1563EDEFFFF023
:10FFE800FF0E156FF8EFFFF0C1ECFDF01507000EDE
:08FFF8001563F8EFFFF01200A1
:020000040030CA
:0700000015137F7CF98B91C1
:06000800FFC0FFE0FF4015
:00000001FF
